{
  "contractName": "EvidenceSystem",
  "abi": [
    {
      "constant": false,
      "inputs": [
        {
          "name": "_information",
          "type": "string"
        }
      ],
      "name": "storeEvidence",
      "outputs": [],
      "payable": false,
      "stateMutability": "nonpayable",
      "type": "function"
    },
    {
      "constant": true,
      "inputs": [],
      "name": "getEvidenceLength",
      "outputs": [
        {
          "name": "",
          "type": "uint256"
        }
      ],
      "payable": false,
      "stateMutability": "view",
      "type": "function"
    },
    {
      "constant": true,
      "inputs": [
        {
          "name": "_index",
          "type": "uint256"
        }
      ],
      "name": "getEvidence",
      "outputs": [
        {
          "name": "",
          "type": "string"
        },
        {
          "name": "",
          "type": "uint256"
        }
      ],
      "payable": false,
      "stateMutability": "view",
      "type": "function"
    }
  ],
  "bytecode": "0x608060405234801561001057600080fd5b50610531806100206000396000f300608060405260043610610057576000357c0100000000000000000000000000000000000000000000000000000000900463ffffffff16806334dbf0e11461005c578063c956f143146100c5578063cdf22ee714610172575b600080fd5b34801561006857600080fd5b506100c3600480360381019080803590602001908201803590602001908080601f016020809104026020016040519081016040528093929190818152602001838380828437820191505050505050919291929050505061019d565b005b3480156100d157600080fd5b506100f060048036038101908080359060200190929190505050610248565b6040518080602001838152602001828103825284818151815260200191508051906020019080838360005b8381101561013657808201518184015260208101905061011b565b50505050905090810190601f1680156101635780820380516001836020036101000a031916815260200191505b50935050505060405180910390f35b34801561017e57600080fd5b50610187610417565b6040518082815260200191505060405180910390f35b6000803373ffffffffffffffffffffffffffffffffffffffff1673ffffffffffffffffffffffffffffffffffffffff168152602001908152602001600020604080519081016040528083815260200142815250908060018154018082558091505090600182039060005260206000209060020201600090919290919091506000820151816000019080519060200190610237929190610460565b506020820151816001015550505050565b60606000600183016000803373ffffffffffffffffffffffffffffffffffffffff1673ffffffffffffffffffffffffffffffffffffffff1681526020019081526020016000208054905010156102b857600060206040519081016040528060008152509080905091509150610412565b6000803373ffffffffffffffffffffffffffffffffffffffff1673ffffffffffffffffffffffffffffffffffffffff1681526020019081526020016000208381548110151561030357fe5b90600052602060002090600202016000016000803373ffffffffffffffffffffffffffffffffffffffff1673ffffffffffffffffffffffffffffffffffffffff1681526020019081526020016000208481548110151561035f57fe5b906000526020600020906002020160010154818054600181600116156101000203166002900480601f0160208091040260200160405190810160405280929190818152602001828054600181600116156101000203166002900480156104065780601f106103db57610100808354040283529160200191610406565b820191906000526020600020905b8154815290600101906020018083116103e957829003601f168201915b50505050509150915091505b915091565b60008060003373ffffffffffffffffffffffffffffffffffffffff1673ffffffffffffffffffffffffffffffffffffffff16815260200190815260200160002080549050905090565b828054600181600116156101000203166002900490600052602060002090601f016020900481019282601f106104a157805160ff19168380011785556104cf565b828001600101855582156104cf579182015b828111156104ce5782518255916020019190600101906104b3565b5b5090506104dc91906104e0565b5090565b61050291905b808211156104fe5760008160009055506001016104e6565b5090565b905600a165627a7a72305820e30101ad883f365c1a02a132f95517b68ffd375fbdacbf9bd5606f01777e91af0029",
  "source": "pragma solidity ^0.4.23;\ncontract EvidenceSystem {\n    struct Evidence {\n        string information;\n        uint timestamp ; \n    }\n    mapping(address => Evidence[]) private evidences;\n\n    function storeEvidence(string _information) public {\n        evidences[msg.sender].push(Evidence({\n            information: _information,\n            timestamp: now\n        }));\n    }\n    function getEvidenceLength() public view returns(uint) {\n        return evidences[msg.sender].length;\n    }\n    function getEvidence(uint _index) public view returns (string, uint){\n        if(evidences[msg.sender].length < _index + 1) {\n            return (\"\", 0);\n        }\n        return (evidences[msg.sender][_index].information, evidences[msg.sender][_index].timestamp);    \n    }\n}\n",
  "sourcePath": "/Users/edz/EV/contracts/EvidenceSystem.sol",
  "compiler": {
    "name": "solc",
    "version": "0.4.24+commit.e67f0147.Emscripten.clang"
  },
  "schemaVersion": "2.0.1",
  "updatedAt": "2018-09-14T04:15:20.578Z"
}